:020000040800F2
:100000000000012079210008691F0008711F000805
:10001000791F0008811F0008891F000800000000E8
:10002000000000000000000000000000911F000818
:100030009F1F000800000000AD1F0008BB1F000844
:10004000C9210008C9210008C9210008C9210008E8
:10005000C9210008C9210008C9210008C9210008D8
:10006000C9210008C9210008C9210008C9210008C8
:10007000C9210008C9210008C9210008C9210008B8
:10008000C9210008C9210008C9210008C9210008A8
:10009000C9210008C9210008C9210008C921000898
:1000A000C9210008C9210008C9210008C921000888
:1000B000C9210008C9210008C9210008C921000878
:1000C000C9210008C9210008C9210008C921000868
:1000D000C9210008C9210008C9210008C921000858
:1000E000C9210008C9210008C9210008C921000848
:1000F000C9210008C9210008C9210008C921000838
:10010000C92100080000000000000000C92100080B
:10011000C9210008C9210008C9210008C921000817
:10012000C9210008C9210008C9210008C921000807
:10013000C9210008C92100080000000000000000DB
:10014000C9210008C9210008C921000800000000D9
:10015000000000000000000000000000000000009F
:10016000C9210008C9210008C9210008C9210008C7
:10017000C9210008C9210008C9210008C9210008B7
:10018000C9210008C921000800000000000000008B
:04019000C921000879
:1001A00010B5054C237833B9044B13B10448AFF3B1
:1001B00000800123237010BDD40100200000000046
:1001C0006486000808B5034B1BB103490348AFF32D
:1001D000008008BD00000000D801002064860008EF
:1001E00001F0FF01102A2BDB10F0070F08D010F8E8
:1001F000013B013A8B422DD010F0070F42B3F6D1EC
:10020000F0B441EA012141EA014122F007047FF004
:1002100000070023F0E80256083C85EA010586EA5B
:10022000010685FA47F5A3FA87F586FA47F6A5FA97
:1002300087F68EB9EED1F0BC01F0FF0102F00702A3
:1002400032B110F8013B013A83EA010313B1F8D14E
:100250000020704701387047002D06BF354603382F
:10026000073815F0010F07D1013015F4807F02BF68
:10027000013015F4C03F0130F0BC0138704700BFB9
:10028000034613F8012B002AFBD1181A01387047D6
:1002900081F0004102E000BF83F0004330B54FEA37
:1002A00041044FEA430594EA050F08BF90EA020FA4
:1002B0001FBF54EA000C55EA020C7FEA645C7FEA37
:1002C000655C00F0E2804FEA5454D4EB5555B8BF5A
:1002D0006D420CDD2C4480EA020281EA030382EACB
:1002E000000083EA010180EA020281EA0303362D5D
:1002F00088BF30BD11F0004F4FEA01314FF4801C30
:100300004CEA113102D0404261EB410113F0004F41
:100310004FEA03334CEA133302D0524263EB4303F8
:1003200094EA050F00F0A780A4F10104D5F1200E96
:100330000DDB02FA0EFC22FA05F2801841F10001F1
:1003400003FA0EF2801843FA05F359410EE0A5F1C5
:1003500020050EF1200E012A03FA0EFC28BF4CF0F6
:10036000020C43FA05F3C01851EBE37101F00045AC
:1003700007D54FF0000EDCF1000C7EEB00006EEBB9
:100380000101B1F5801F1BD3B1F5001F0CD3490843
:100390005FEA30004FEA3C0C04F101044FEA44529A
:1003A00012F5800F80F09A80BCF1004F08BF5FEA21
:1003B000500C50F1000041EB045141EA050130BD01
:1003C0005FEA4C0C404141EB0101013C28BFB1F513
:1003D000801FE9D291F0000F04BF01460020B1FA5E
:1003E00081F308BF2033A3F10B03B3F120020CDA31
:1003F0000C3208DD02F1140CC2F10C0201FA0CF00F
:1004000021FA02F10CE002F11402D8BFC2F1200C73
:1004100001FA02F120FA0CFCDCBF41EA0C01904029
:10042000E41AA2BF01EB0451294330BD6FEA040472
:100430001F3C1CDA0C340EDC04F11404C4F120025D
:1004400020FA04F001FA02F340EA030021FA04F36F
:1004500045EA030130BDC4F10C04C4F1200220FAC6
:1004600002F001FA04F340EA0300294630BD21FA04
:1004700004F0294630BD94F0000F83F4801306BFCA
:1004800081F480110134013D4EE77FEA645C18BFBE
:100490007FEA655C29D094EA050F08BF90EA020F55
:1004A00005D054EA000C04BF1946104630BD91EA4D
:1004B000030F1EBF0021002030BD5FEA545C05D150
:1004C0004000494128BF41F0004130BD14F580048F
:1004D0003CBF01F5801130BD01F0004545F0FE4103
:1004E00041F470014FF0000030BD7FEA645C1ABF38
:1004F000194610467FEA655C1CBF0B46024650EA6F
:10050000013406BF52EA033591EA030F41F400219A
:1005100030BD00BF90F0000F04BF0021704730B520
:100520004FF4806404F132044FF000054FF00001F5
:1005300050E700BF90F0000F04BF0021704730B5B6
:100540004FF4806404F1320410F0004548BF40428B
:100550004FF000013EE700BF42004FEAE2014FEAE0
:1005600031014FEA02701FBF12F07F4393F07F4FBB
:1005700081F06051704732F07F4208BF704793F0BE
:100580007F4F04BF41F40021704730B54FF46074D1
:1005900001F0004521F000411CE700BF50EA0102D4
:1005A00008BF704730B54FF000050AE050EA01027D
:1005B00008BF704730B511F0004502D5404261EBED
:1005C00041014FF4806404F132045FEA915C3FF42E
:1005D000D8AE4FF003025FEADC0C18BF03325FEACB
:1005E000DC0C18BF033202EBDC02C2F1200300FA7C
:1005F00003FC20FA02F001FA03FE40EA0E0021FAA1
:1006000002F11444BDE600BF70B54FF0FF0C4CF48E
:10061000E06C1CEA11541DBF1CEA135594EA0C0F40
:1006200095EA0C0F00F0DEF82C4481EA030621EA7B
:100630004C5123EA4C5350EA013518BF52EA0335B6
:1006400041F4801143F4801338D0A0FB02CE4FF068
:100650000005E1FB02E506F00042E0FB03E54FF098
:100660000006E1FB03569CF0000F18BF4EF0010E90
:10067000A4F1FF04B6F5007F64F5407404D25FEA8C
:100680004E0E6D4146EB060642EAC62141EA55513F
:100690004FEAC52040EA5E504FEACE2EB4F1FD0C81
:1006A00088BFBCF5E06F1ED8BEF1004F08BF5FEAFF
:1006B000500E50F1000041EB045170BD06F00046B1
:1006C00046EA010140EA020081EA0301B4EB5C045E
:1006D000C2BFD4EB0C0541EA045170BD41F4801156
:1006E0004FF0000E013C00F3AB8014F1360FDEBF7B
:1006F000002001F0004170BDC4F10004203C35DA57
:100700000C341BDC04F11404C4F1200500FA05F3D9
:1007100020FA04F001FA05F240EA020001F000427A
:1007200021F0004110EBD37021FA04F642EB0601F0
:100730005EEA430E08BF20EAD37070BDC4F10C041A
:10074000C4F1200500FA04F320FA05F001FA04F2DE
:1007500040EA020001F0004110EBD37041F10001CA
:100760005EEA430E08BF20EAD37070BDC4F12005D5
:1007700000FA05F24EEA020E20FA04F301FA05F23D
:1007800043EA020321FA04F001F0004121FA04F2E5
:1007900020EA020000EBD3705EEA430E08BF20EAB5
:1007A000D37070BD94F0000F0FD101F000464000EF
:1007B00041EB010111F4801F08BF013CF7D041EA71
:1007C000060195F0000F18BF704703F00046520075
:1007D00043EB030313F4801F08BF013DF7D043EA46
:1007E0000603704794EA0C0F0CEA135518BF95EAFC
:1007F0000C0F0CD050EA410618BF52EA4306D1D183
:1008000081EA030101F000414FF0000070BD50EAA1
:10081000410606BF1046194652EA430619D094EA2B
:100820000C0F02D150EA013613D195EA0C0F05D115
:1008300052EA03361CBF104619460AD181EA030169
:1008400001F0004141F0FE4141F470014FF0000021
:1008500070BD41F0FE4141F4780170BD70B54FF0BC
:10086000FF0C4CF4E06C1CEA11541DBF1CEA13553C
:1008700094EA0C0F95EA0C0F00F0A7F8A4EB05041E
:1008800081EA030E52EA03354FEA013100F0888015
:100890004FEA03334FF0805545EA131343EA1263DE
:1008A0004FEA022245EA111545EA10654FEA002693
:1008B0000EF000419D4208BF964244F1FD0404F54C
:1008C000407402D25B084FEA3202B61A65EB0305A8
:1008D0005B084FEA32024FF480104FF4002CB6EB65
:1008E000020E75EB030E22BFB61A754640EA0C00E5
:1008F0005B084FEA3202B6EB020E75EB030E22BF25
:10090000B61A754640EA5C005B084FEA3202B6EB65
:10091000020E75EB030E22BFB61A754640EA9C0024
:100920005B084FEA3202B6EB020E75EB030E22BFF4
:10093000B61A754640EADC0055EA060E18D04FEAB2
:10094000051545EA16754FEA06164FEAC30343EA52
:1009500052734FEAC2025FEA1C1CC0D111F4801F1F
:100960000BD141EA00014FF000004FF0004CB6E718
:1009700011F4801F04BF01430020B4F1FD0C88BFB7
:10098000BCF5E06F3FF6AFAEB5EB030C04BFB6EBC2
:10099000020C5FEA500C50F1000041EB045170BDB5
:1009A0000EF0004E4EEA113114EB5C04C2BFD4EBE2
:1009B0000C0541EA045170BD41F480114FF0000E66
:1009C000013C90E645EA060E8DE60CEA135594EAE2
:1009D0000C0F08BF95EA0C0F3FF43BAF94EA0C0FE5
:1009E0000AD150EA01347FF434AF95EA0C0F7FF45A
:1009F00025AF104619462CE795EA0C0F06D152EAAE
:100A000003353FF4FDAE1046194622E750EA410691
:100A100018BF52EA43067FF4C5AE50EA41047FF4A2
:100A20000DAF52EA43057FF4EBAE12E74FF0FF3C07
:100A300006E000BF4FF0010C02E000BF4FF0010CD8
:100A40004DF804CD4FEA410C7FEA6C5C4FEA430C51
:100A500018BF7FEA6C5C1BD001B050EA410C0CBFA0
:100A600052EA430C91EA030F02BF90EA020F002002
:100A7000704710F1000F91EA030F58BF994208BF69
:100A800090422CBFD8176FEAE37040F00100704726
:100A90004FEA410C7FEA6C5C02D150EA013C07D17D
:100AA0004FEA430C7FEA6C5CD6D152EA033CD3D0C8
:100AB0005DF8040B704700BF8446104662468C46C2
:100AC0001946634600E000BF01B5FFF7B7FF0028F5
:100AD00048BF10F1000F01BD4DF808EDFFF7F4FF1E
:100AE0000CBF012000205DF808FB00BF4DF808EDA9
:100AF000FFF7EAFF34BF012000205DF808FB00BFCC
:100B00004DF808EDFFF7E0FF94BF012000205DF8ED
:100B100008FB00BF4DF808EDFFF7CEFF94BF0120A2
:100B200000205DF808FB00BF4DF808EDFFF7C4FF9B
:100B300034BF012000205DF808FB00BF4FEA410CE4
:100B40007FEA6C5C02D150EA013C0AD14FEA430CC7
:100B50007FEA6C5C02D152EA033C02D14FF0000004
:100B600070474FF0010070474FEA410212F5001242
:100B700015D211D56FF47873B3EB625212D94FEAE4
:100B8000C12343F0004343EA505311F0004F23FACE
:100B900002F018BF404270474FF00000704750EA23
:100BA000013005D111F0004008BF6FF000407047E0
:100BB0004FF00000704700BF4FEA4102B2F1E0433E
:100BC00024BFB3F5001CDCF1FE5C0DD901F0004C34
:100BD0004FEAC0024CEA5070B2F1004F40EB830084
:100BE00008BF20F00100704711F0804F21D113F1B0
:100BF0003872BCBF01F00040704741F480114FEAE9
:100C00005252C2F11802C2F1200C10FA0CF320FA71
:100C100002F018BF40F001004FEAC1234FEAD3238E
:100C200003FA0CFC40EA0C0023FA02F34FEA4303F8
:100C3000CCE77FEA625307D150EA01331EBF4FF081
:100C4000FE4040F44000704701F0004040F0FE409C
:100C500040F40000704700BFB0B588B000AF01F0AD
:100C6000B5FA00F04DFC00F059FF00F0AFFC00F0C9
:100C700025FF00F055FD00F015FE00F0A3FEBC4876
:100C800001F02AFEBB4801F027FEBB4801F024FE1C
:100C9000BA4801F021FE4FF0FF330C22B849B948A1
:100CA00004F076FB4FF47A7001F0F6FAB64805F0DE
:100CB00069FDAF4801F010FE6421AD4801F00AFD66
:100CC000AB4801F049FF03469BB23B833B8B184680
:100CD000FFF730FCA4A3D3E90023FFF795FC0246FD
:100CE0000B4610461946FFF767FF0346A74A1360F5
:100CF000A64B1B681846FFF72FFC02460B46A4487C
:100D000005F0D8FC9A4801F0E7FD6421984801F00D
:100D1000E1FC974801F020FF03469BB27B837B8B6D
:100D20001846FFF707FC90A3D3E90023FFF76CFCFC
:100D300002460B4610461946FFF73EFF0346954A0A
:100D40001360944B1B681846FFF706FC02460B46DF
:100D5000914805F0AFFC864801F0BEFD642184484F
:100D600001F0B8FC824801F0F7FE03469BB2BB835A
:100D7000BB8B1846FFF7DEFB7BA3D3E90023FFF70D
:100D800043FC02460B4610461946FFF715FF034683
:100D9000824A1360814B1B681846FFF7DDFB024651
:100DA0000B467F4805F086FC714801F095FD6421F3
:100DB0006F4801F08FFC6E4801F0CEFE03469BB2F7
:100DC000FB83FB8B1846FFF7B5FB67A3D3E9002332
:100DD000FFF71AFC02460B4610461946FFF7ECFED9
:100DE0000346704A13606F4B1B681846FFF7B4FB4D
:100DF00002460B466C4805F05DFC5D4801F06CFD59
:100E000064215B4801F066FC594801F0A5FE0346E9
:100E10009BB23B843B8C1846FFF78CFB52A3D3E973
:100E20000023FFF7F1FB02460B4610461946FFF779
:100E3000C3FE03465D4A13605C4B1B681846FFF710
:100E40008BFB02460B465A4805F034FC494801F03A
:100E500043FD6421474801F03DFC464801F07CFE1B
:100E600003469BB23B813B891846FFF763FB3EA3D9
:100E7000D3E90023FFF7C8FB02460B46104619468C
:100E8000FFF79AFE03464B4A13604A4B1B6818460D
:100E9000FFF762FB02460B46474805F00BFC35485E
:100EA00001F01AFD6421334801F014FC314801F0CF
:100EB00053FE03469BB27B817B891846FFF73AFBC2
:100EC00029A3D3E90023FFF79FFB02460B461046F8
:100ED0001946FFF771FE0346384A1360374B1B680B
:100EE0001846FFF739FB02460B46354805F0E2FB92
:100EF000204801F0F1FC64211E4801F0EBFB1D4885
:100F000001F02AFE03469BB2BB81BB891846FFF75E
:100F100011FB15A3D3E90023FFF776FB02460B462E
:100F200010461946FFF748FE0346264A1360254B34
:100F30001B681846FFF710FB02460B46224805F0D7
:100F4000B9FB0C4801F0C8FC64210A4801F0C2FB5F
:100F5000084801F001FE03469BB2FB81FB8918465D
:100F6000FFF7E8FA32E000BF7B14AE47E17AB43F06
:100F7000F00100204002002090020020E00200204A
:100F8000808600083003002090860008B803002007
:100F900098860008BC030020B4860008C003002027
:100FA000D0860008C4030020EC860008C803002097
:100FB00008870008CC03002024870008D003002005
:100FC00040870008D40300205C870008BCA3D3E955
:100FD0000023FFF719FB02460B4610461946FFF7A0
:100FE000EBFD0346BE4A1360BD4B1B681846FFF776
:100FF000B3FA02460B46BB4805F05CFBBA4801F069
:101000006BFC6421B84801F065FBB74801F0A4FD12
:1010100003469BB23B823B8A1846FFF78BFAA8A394
:10102000D3E90023FFF7F0FA02460B4610461946B3
:10103000FFF7C2FD0346AD4A1360AC4B1B68184670
:10104000FFF78AFA02460B46A94805F033FBA6488B
:1010500001F042FC6421A44801F03CFBA24801F0ED
:101060007BFD03469BB27B827B8A1846FFF762FAC0
:1010700093A3D3E90023FFF7C7FA02460B461046B5
:101080001946FFF799FD03469A4A1360994B1B686E
:101090001846FFF761FA02460B46974805F00AFB2F
:1010A000914801F019FC64218F4801F013FB8E4830
:1010B00001F052FD03469BB2BB82BB8A1846FFF784
:1010C00039FA81A3D3E90023FFF79EFA02460B46C3
:1010D00010461946FFF770FD0346884A1360874B98
:1010E0001B681846FFF738FA79A3D3E90023FFF706
:1010F000D3F802460B46144683F0004576A3D3E9A5
:10110000002320462946FFF7A9FB02460B4610465E
:101110001946FFF751FD0346794A1360784B1B6867
:101120001846FFF719FA02460B46764805F0C2FA50
:101130006D4801F0D1FB64216B4801F0CBFA6A489D
:1011400001F00AFD03469BB2FB82FB8A1846FFF7BB
:10115000F1F95BA3D3E90023FFF756FA02460B46E9
:1011600010461946FFF728FD0346674A1360664B91
:101170001B681846FFF7F0F902460B46634805F076
:1011800099FA634801F0A8FB6421614801F0A2FAD2
:101190005F4801F0E1FC03469BB2BB80BB88184668
:1011A000FFF7C8F946A3D3E90023FFF72DFA02465B
:1011B0000B4610461946FFF7FFFC0346554A1360DD
:1011C000544B1B681846FFF7C7F902460B465248B6
:1011D00005F070FA4E4801F07FFB64214C4801F0A5
:1011E00079FA4B4801F0B8FC03469BB2FB80FB88C0
:1011F0001846FFF79FF932A3D3E90023FFF704FA5B
:1012000002460B4610461946FFF7D6FC0346434AF2
:101210001360424B1B681846FFF79EF902460B46C7
:101220003F4805F047FA3A4801F056FB6421384838
:1012300001F050FA364801F08FFC03469BB23B8127
:101240003B891846FFF776F91DA3D3E90023FFF782
:10125000DBF902460B4610461946FFF7ADFC034684
:10126000304A13602F4B1B681846FFF775F902468A
:101270000B462D4805F01EFA2C4801F02DFB642189
:101280002A4801F027FA294801F066FC03469BB280
:101290003B803B881846FFF74DF909A3D3E90023AB
:1012A000FFF7B2F902460B4610461946FFF784FCD9
:1012B00003461F4A13601E4B1B6818463AE000BFE6
:1012C0007B14AE47E17AB43F6666666666664A3F5F
:1012D0008FC2F5285C8FEA3FB81E85EB51B89E3F60
:1012E000D80300207887000840020020DC0300209B
:1012F00094870008E0030020B08700080404002061
:1013000000040020CC870008E4030020E4870008E4
:1013100090020020E803002000880008EC03002071
:101320001C880008F003002038880008E002002034
:10133000F4030020FFF710F902460B465A4805F067
:10134000B9F95A4801F0C8FA6421584801F0C2F9C5
:10135000564801F001FC03469BB27B807B8818460F
:10136000FFF7E8F84EA3D3E90023FFF74DF9024653
:101370000B4610461946FFF71FFC03464C4A136004
:101380004B4B1B681846FFF7E7F802460B464948E7
:1013900005F090F9454801F09FFA6421434801F0B7
:1013A00099F9424801F0D8FB03469BB2BB80BB8849
:1013B0001846FFF7BFF83AA3D3E90023FFF724F953
:1013C00002460B4610461946FFF7F6FB03463A4A1B
:1013D0001360394B1B681846FFF7BEF802460B46F0
:1013E000364805F067F9364B93ED007A354BD3ED6F
:1013F000007A37EE277A344BD3ED007A37EE277A2E
:10140000324BD3ED007A37EE277A314BD3ED007AA9
:1014100037EE277A2F4BD3ED007A37EE277A2E4B13
:10142000D3ED007A37EE277A2C4BD3ED007A37EEE6
:10143000277A2B4BD3ED007A37EE277A294BD3ED61
:10144000007A37EE277A284BD3ED007A37EE277AE9
:10145000264BD3ED007A37EE277A254BD3ED007A71
:1014600037EE277A234BD3ED007A37EE277A224BDB
:10147000D3ED007A37EE277A0D4BD3ED007A37EEB5
:10148000277A0D4BD3ED007A37EE277AF3EE016A17
:10149000C7EE267A194BC3ED007A00BFFFF7FBBBFE
:1014A0007B14AE47E17AB43F54880008E002002084
:1014B000F803002070880008FC0300208C880008D6
:1014C000BC030020C0030020C4030020C803002088
:1014D000CC030020D0030020D4030020D803002038
:1014E000DC030020E0030020E4030020E8030020E8
:1014F000EC030020F0030020F40300200804002087
:1015000080B5A6B000AF07F170032822002118466D
:1015100005F018FA07F15C0300221A605A609A601D
:10152000DA601A613B1D58220021184605F00AFABC
:1015300002233B670123FB671023C7F88030022397
:10154000C7F888304FF40043C7F88C304FF4E013ED
:10155000C7F890300023C7F8943007F1700318469D
:1015600002F036FA0346002B01D000F03FFB0F23B8
:10157000FB6502233B6600237B664FF48063BB66FA
:101580000023FB6607F15C030221184603F074FA9E
:101590000346002B01D000F029FB4FF4C1737B60A0
:1015A00000233B614FF48073FB624FF400533B63B5
:1015B0003B1D184603F080FC0346002B01D000F0D1
:1015C00015FB00BF9837BD4680BD000080B58AB0CE
:1015D00000AF07F11C0300221A605A609A603B1D9D
:1015E00000221A605A609A60DA601A615A614B4BA5
:1015F0004FF0A0421A60494B00225A60474B00222C
:101600009A60464B01221A61444B00225A76434BA2
:10161000012283F82020414B01225A623F4B0022D5
:10162000DA623E4B01229A623C4B0022DA603B4B6D
:101630000522DA61394B002283F83020374B04222F
:101640005A61364B00221A76344B01225A633348D2
:1016500000F046FE0346002B01D000F0C7FA00233D
:10166000FB6107F11C0319462C4801F06DFD034690
:10167000002B01D000F0BAFA01237B600123BB608C
:1016800000233B610723FB6000237B610023BB61D8
:101690003B1D1946214801F06DFA0346002B01D08D
:1016A00000F0A4FA04237B600223BB603B1D1946B3
:1016B0001A4801F05FFA0346002B01D000F096FAB9
:1016C00006237B600323BB603B1D1946134801F0D2
:1016D00051FA0346002B01D000F088FA07237B6003
:1016E0000423BB603B1D19460C4801F043FA034636
:1016F000002B01D000F07AFA0E237B600523BB603B
:101700003B1D1946054801F035FA0346002B01D070
:1017100000F06CFA00BF2837BD4680BDF001002004
:1017200080B586B000AF3B4600221A605A609A60CE
:10173000DA601A615A61594B594A1A60574B0022B4
:101740005A60564B00229A60544B01221A61534B47
:1017500000225A76514B012283F820204F4B012260
:101760005A624E4B0022DA624C4B01229A624B4B7A
:101770000022DA60494B0822DA61484B002283F8E4
:101780003020464B04225A61444B00221A76434BC8
:1017900001225A63414800F0A3FD0346002B01D00B
:1017A00000F024FA03233B6001237B600023FB60ED
:1017B0000723BB6000233B6100237B613B46194646
:1017C000364801F0D7F90346002B01D000F00EFA9D
:1017D00004233B6002237B603B4619462F4801F0FF
:1017E000C9F90346002B01D000F000FA05233B6045
:1017F00003237B603B461946284801F0BBF90346AA
:10180000002B01D000F0F2F908233B6004237B6039
:101810003B461946214801F0ADF90346002B01D0A3
:1018200000F0E4F909233B6005237B603B46194641
:101830001A4801F09FF90346002B01D000F0D6F9B9
:101840000B233B6006237B603B461946134801F09F
:1018500091F90346002B01D000F0C8F90C233B603E
:1018600007237B603B4619460C4801F083F9034689
:10187000002B01D000F0BAF901233B6008237B6004
:101880003B461946054801F075F90346002B01D087
:1018900000F0ACF900BF1837BD4680BD4002002003
:1018A0000001005080B58AB000AF07F11C03002290
:1018B0001A605A609A603B1D00221A605A609A6052
:1018C000DA601A615A613D4B3D4A1A603B4B002277
:1018D0005A603A4B00229A60384B01221A61374B0A
:1018E00000225A76354B012283F82020334B012207
:1018F0005A62324B0022DA62304B01229A622F4B3D
:101900000022DA602D4B0322DA612C4B002283F88F
:1019100030202A4B04225A61284B00221A76274B8A
:1019200001225A63254800F0DBFC0346002B01D05E
:1019300000F05CF90023FB6107F11C0319461F4806
:1019400001F002FC0346002B01D000F04FF9012307
:101950007B600123BB6000233B610723FB60002306
:101960007B610023BB613B1D1946144801F002F95D
:101970000346002B01D000F039F905237B600223D8
:10198000BB603B1D19460D4801F0F4F80346002BDF
:1019900001D000F02BF90C237B600323BB603B1DBF
:1019A0001946064801F0E6F80346002B01D000F086
:1019B0001DF900BF2837BD4680BD00BF9002002042
:1019C0000004005080B586B000AF3B4600221A608C
:1019D0005A609A60DA601A615A61364B364A1A6068
:1019E000344B00225A60334B00229A60314B012263
:1019F0001A61304B00225A762E4B012283F82020A8
:101A00002C4B01225A622B4B0022DA62294B012215
:101A10009A62284B0022DA60264B0322DA61254BBA
:101A2000002283F83020234B04225A61214B0022EC
:101A30001A76204B01225A631E4800F051FC0346DF
:101A4000002B01D000F0D2F803233B6001237B6020
:101A50000023FB600723BB6000233B6100237B6105
:101A60003B461946134801F085F80346002B01D088
:101A700000F0BCF804233B6002237B603B46194620
:101A80000C4801F077F80346002B01D000F0AEF8C7
:101A900005233B6003237B603B461946054801F064
:101AA00069F80346002B01D000F0A0F800BF1837FA
:101AB000BD4680BDE00200200005005080B500AFAB
:101AC000144B154A1A60134B4FF416525A60114BBF
:101AD00000229A600F4B0022DA600E4B00221A613E
:101AE0000C4B0C225A610B4B00229A61094B0022CD
:101AF000DA61084B00221A62064B00225A6205483E
:101B000003F0F8FB0346002B01D000F06FF800BF94
:101B100080BD00BF300300200044004080B58AB083
:101B200000AF07F1140300221A605A609A60DA606D
:101B30001A61244B5B69234A43F480035361214BB0
:101B40005B6903F480033B613B691E4B5B691D4A83
:101B500043F4002353611B4B5B6903F40023FB60D8
:101B6000FB68184B5B69174A43F400335361154B0C
:101B70005B6903F40033BB60BB68124B5B69114ABD
:101B800043F4802353610F4B5B6903F480237B6034
:101B90007B68002220214FF0904001F001FF2023BC
:101BA0007B610123BB610023FB6100233B6207F1E2
:101BB000140319464FF0904001F068FD00BF28372C
:101BC000BD4680BD0010024080B582B000AF786095
:101BD000391D4FF6FF730122034803F0D9FB7B68E0
:101BE00018460837BD4680BD3003002080B400AFE2
:101BF00072B600BF00BFFDE780B483B000AF0F4BEB
:101C00009B690E4A43F0010393610C4B9B6903F0FF
:101C100001037B607B68094BDB69084A43F0805312
:101C2000D361064BDB6903F080533B603B6800BF28
:101C30000C37BD465DF8047B704700BF00100240C2
:101C400080B594B000AF786007F13C0300221A60C1
:101C50005A609A60DA601A617B681B68B3F1A04F22
:101C60005FD1974B1B680133954A1360944B1B68F7
:101C7000012B0BD1934B5B69924A43F08053536124
:101C8000904B5B6903F08053BB63BB6B8D4B5B690F
:101C90008C4A43F4002353618A4B5B6903F40023AD
:101CA0007B637B6B874B5B69864A43F400335361EC
:101CB000844B5B6903F400333B633B6B814B5B6993
:101CC000804A43F4802353617E4B5B6903F4802395
:101CD000FB62FB6A0323FB6303233B6400237B64F7
:101CE00007F13C031946784801F0D0FC0923FB6357
:101CF00003233B6400237B6407F13C0319464FF048
:101D0000904001F0C3FC4FF40063FB6303233B648A
:101D100000237B6407F13C0319466C4801F0B6FCD4
:101D2000CAE07B681B686A4A93425ED1644B1B68B9
:101D30000133634A1360624B1B68012B0BD1614B6B
:101D40005B69604A43F0805353615E4B5B6903F00B
:101D50008053BB62BB6A5B4B5B695A4A43F4002306
:101D60005361584B5B6903F400237B627B6A554BDC
:101D70005B69544A43F400335361524B5B6903F48B
:101D800000333B623B6A4F4B5B694E4A43F480230E
:101D900053614C4B5B6903F48023FB61FB693C237B
:101DA000FB6303233B6400237B6407F13C03194678
:101DB000454801F06BFCD023FB6303233B64002305
:101DC0007B6407F13C0319464FF0904001F05EFC44
:101DD0000423FB6303233B6400237B6407F13C0380
:101DE00019463A4801F052FC66E07B681B68394AA4
:101DF00093422ED1384B1B680133374A1360364B60
:101E00001B68012B0BD12F4B5B692E4A43F000530B
:101E100053612C4B5B6903F00053BB61BB69294BD9
:101E20005B69284A43F480235361264B5B6903F4C2
:101E300080237B617B6942F20303FB6303233B64E2
:101E400000237B6407F13C031946204801F01EFC87
:101E500032E07B681B68214A93422DD11E4B1B68E0
:101E600001331D4A13601C4B1B68012B0BD1154B12
:101E70005B69144A43F000535361124B5B6903F0F2
:101E800000533B613B690F4B5B690E4A43F480236F
:101E900053610C4B5B6903F48023FB60FB684FF4D8
:101EA0005043FB6303233B6400237B6407F13C0343
:101EB0001946064801F0EAFB00BF5037BD4680BD19
:101EC0000C040020001002400008004800040048F4
:101ED00000010050000400501004002000050050D4
:101EE00080B58AB000AF786007F1140300221A6051
:101EF0005A609A60DA601A617B681B68184A9342DC
:101F000029D1184BDB69174A43F40033D361154BD1
:101F1000DB6903F400333B613B69124B5B69114A97
:101F200043F4003353610F4B5B6903F40033FB60F0
:101F3000FB6848F204037B610223BB610023FB6161
:101F400003233B6207237B6207F1140319464FF01A
:101F5000904001F09BFB00BF2837BD4680BD00BF0D
:101F6000004400400010024080B400AF00BFFDE715
:101F700080B400AF00BFFDE780B400AF00BFFDE755
:101F800080B400AF00BFFDE780B400AF00BFFDE745
:101F900080B400AF00BFBD465DF8047B704780B4DD
:101FA00000AF00BFBD465DF8047B704780B400AF52
:101FB00000BFBD465DF8047B704780B500AF00F000
:101FC0004BF900BF80BD80B400AF01231846BD4669
:101FD0005DF8047B704780B582B000AF78603960EF
:101FE00004F002FD034616221A604FF0FF33184634
:101FF0000837BD4680BD80B582B000AF78604FF035
:10200000FF317868FFF7E7FF00BFFDE780B586B0D6
:1020100000AFF860B9607A6000237B610AE0AFF33B
:1020200000800146BB685A1CBA60CAB21A707B694C
:1020300001337B617A697B689A42F0DB7B681846E2
:102040001837BD4680BD80B586B000AFF860B96076
:102050007A6000237B6109E0BB685A1CBA601B7878
:102060001846FFF7B1FD7B6901337B617A697B68B4
:102070009A42F1DB7B6818461837BD4680BD80B4B4
:1020800083B000AF78604FF0FF3318460C37BD4681
:102090005DF8047B704780B483B000AF786039602E
:1020A0003B684FF400525A60002318460C37BD4677
:1020B0005DF8047B704780B483B000AF7860012383
:1020C00018460C37BD465DF8047B704780B485B078
:1020D00000AFF860B9607A60002318461437BD4637
:1020E0005DF8047B7047000080B586B000AF786073
:1020F000144A154BD31A7B617B693B61134B1B68F8
:10210000002B02D1114B124A1A60104B1A687B68DF
:1021100013443A699A4207D204F066FC03460C2243
:102120001A604FF0FF3309E0084B1B68FB60074B58
:102130001A687B681344054A1360FB681846183711
:10214000BD4680BD000001200004000014040020F2
:102150006805002080B400AF064BD3F88830054AEC
:1021600043F47003C2F8883000BFBD465DF8047BBD
:10217000704700BF00ED00E0DFF834D0FFF7EAFF62
:102180000C480D490D4A002302E0D458C4500433D2
:10219000C4188C42F9D30A4A0A4C002301E01360A8
:1021A0000432A242FBD304F025FCFEF755FDFEE706
:1021B0000000012000000020D4010020608C0008F5
:1021C000D401002068050020FEE7000080B500AFC4
:1021D000084B1B68074A43F010031360032001F00B
:1021E00021FA0F2000F008F8FFF706FD002318463B
:1021F00080BD00BF0020024080B582B000AF786093
:10220000124B1A68124B1B7819464FF47A73B3FBC2
:10221000F1F3B2FBF3F3184601F02BFA0346002B5F
:1022200001D001230EE07B680F2B0AD800227968C9
:102230004FF0FF3001F001FA064A7B68136000237B
:1022400000E0012318460837BD4680BD000000208D
:10225000080000200400002080B400AF064B1B786B
:102260001A46064B1B681344044A136000BFBD4660
:102270005DF8047B704700BF0800002018040020B0
:1022800080B400AF034B1B681846BD465DF8047B65
:10229000704700BF1804002080B584B000AF78609C
:1022A000FFF7EEFFB8607B68FB60FB68B3F1FF3FB0
:1022B00005D00A4B1B781A46FB681344FB6000BF2D
:1022C000FFF7DEFF0246BB68D31AFA689A42F7D8D6
:1022D00000BF00BF1037BD4680BD00BF0800002012
:1022E00080B59AB000AF7860002387F8673000238C
:1022F0003B660023BB607B68002B01D10123E3E137
:102300007B681B69002B7B681B6C03F01003002BA0
:1023100076D17B681B6C002B52D17B6800225A64FB
:102320007B680022DA647B6800229A647B68002262
:1023300083F83C207868FFF783FC7B681B689B6808
:1023400003F08053002B3BD1786801F053F803462B
:1023500087F867307B681B6C03F01003002B2FD1CC
:1023600097F86730002B2BD17B681B6C23F48853C4
:1023700023F0020343F002027B681A647B681B6847
:102380009A687B681B6822F040529A607B681B68E1
:102390009A687B681B6842F080529A60924B1B6877
:1023A000924AA2FB03239A0C13469B0013445B0042
:1023B000BB6002E0BB68013BBB60BB68002BF9D18E
:1023C0007B681B689B6803F08053002B07D07B68F9
:1023D0001B689B6803F00053B3F1005F10D17B686A
:1023E0001B6C23F0120343F010027B681A647B68B5
:1023F0005B6C43F001027B685A64012387F8673005
:102400007B681B6C03F01003002B40F0508197F8A1
:102410006730002B40F04B817B681B689B6803F0A2
:102420000403002B40F043817B681B6C23F4817311
:1024300043F002027B681A647B681B68B3F1A04F0B
:1024400004D07B681B686A4A934201D1694B00E063
:10245000694BFB657B681B68B3F1A04F02D1644BED
:10246000FB601AE07B681B68614A934203D14FF01E
:10247000A043FB6011E07B681B68604A934202D175
:102480005F4BFB6009E07B681B685D4A934202D1A9
:102490005A4BFB6001E00023FB607B681B689B6874
:1024A00003F00303012B08D17B681B681B6803F052
:1024B0000103012B01D1012300E00023002B1CD1DB
:1024C000FB68002B10D0FB689B6803F00303012B13
:1024D00007D1FB681B6803F00103012B01D1012325
:1024E00000E00023002B08D1FB6D9B6823F44032F1
:1024F0007B685B681A43FB6D9A607B685B7E5B035D
:102500007A68526B012A02D04FF4805200E0002218
:102510001A437B68DB681A437B689B6813433A6EF7
:1025200013433B667B6893F82030012B1BD17B68FB
:102530005B7E002B09D17B685B6A013B5A043B6ED2
:10254000134343F480333B660DE07B681B6C23F040
:10255000220343F020027B681A647B685B6C43F0C3
:1025600001027B685A647B689B6A012B54D07B68AC
:102570001B68224A934204D07B681B68204A93421E
:1025800040D17B689B6AB3F5307F2AD07B689B6A19
:10259000B3F5807F22D07B689B6AB3F5E07F1AD0C9
:1025A0007B689B6AB3F58A5F12D07B689B6AB3F540
:1025B000845F0AD07B689B6AB3F5865F02D07B6834
:1025C0009B6A23E04FF4C07320E04FF4A0731DE03A
:1025D0004FF470731AE04FF4807317E04FF43073C8
:1025E00014E04FF4E07311E00000002083DE1B4391
:1025F000000100500003005000070050000400508C
:10260000000500507B689B6A23F480537A68D26A85
:1026100013433A6E13433B667B681B689B6803F069
:102620000C03002B14D17B681B68DB687A68126886
:1026300023F4804323F00203D3607B681B7E9A035C
:102640007B6893F830305B0013433A6E13433B666C
:102650007B681B68DA681E4B13407A681268396E13
:102660000B43D3607B681B69012B0CD17B681B6813
:102670001B6B23F00F017B68DB695A1E7B681B68AC
:102680000A431A6307E07B681B681A6B7B681B6848
:1026900022F00F021A637B6800225A647B681B6C6D
:1026A00023F0030343F001027B681A640AE07B68AD
:1026B0001B6C23F0120343F010027B681A640123A1
:1026C00087F8673097F8673018466837BD4680BD91
:1026D00007C0F0FF80B586B000AF78603960002396
:1026E0003B617B685B69082B02D108237B613AE080
:1026F0007B681B68B3F1A04F04D07B681B68724AEB
:10270000934201D1714B00E0714BFB60FB689B6809
:1027100003F01F03002B12D17B681B68DB6803F0FA
:102720000103012B1DD17B681B6C43F020027B68E9
:102730001A647B68002283F83C200123BFE0FB6819
:102740009B6803F44043002B0BD07B681B6C43F069
:1027500020027B681A647B68002283F83C200123F6
:10276000ADE00C237B617B681B68B3F1A04F04D004
:102770007B681B68544A934206D1544B9B6803F014
:102780001F03002B10D005E0514B9B6803F01F0383
:10279000002B09D07B681B68B3F1A04F04D07B6885
:1027A0001B684C4A934204D17B681B68DB683B6121
:1027B0000FE07B681B68B3F1A04F04D07B681B68F7
:1027C000414A934202D14FF0A04300E0414BDB6805
:1027D0003B61FFF755FDB86021E03B68B3F1FF3F77
:1027E0001DD03B68002B07D0FFF74AFD0246BB68AF
:1027F000D31A3A689A4212D27B681B681A687B69BE
:102800001340002B0BD17B681B6C43F004027B68E8
:102810001A647B68002283F83C2003234FE07B6826
:102820001B681A687B691340002BD6D07B681B6C31
:1028300043F400727B681A647B681B68DB6803F4EE
:102840004063002B31D13B6903F40053002B2CD1A2
:102850007B681B681B6803F00803082B25D17B6885
:102860001B689B6803F00403002B12D17B681B6C70
:1028700023F480727B681A647B681B6C03F48053BA
:10288000002B12D17B681B6C43F001027B681A6439
:102890000BE07B681B6C43F020027B681A647B684A
:1028A0005B6C43F001027B685A643B6903F480432C
:1028B000002B03D17B681B687A691A6000231846D5
:1028C0001837BD4680BD00BF000100500003005016
:1028D000000700500004005080B584B000AF78605D
:1028E0000023FB737B681B689B6803F00403002BC9
:1028F00040F023817B6893F83C30012B01D1022307
:102900001EE17B68012283F83C20786800F00EFD10
:102910000346FB73FB7B002B40F00A817B681B6C3A
:1029200023F4706323F0010343F480727B681A641C
:102930007B681B68B3F1A04F04D07B681B68824A98
:10294000934206D1814B9B6803F01F03002B10D0EC
:1029500005E07F4B9B6803F01F03002B09D07B68C9
:102960001B68B3F1A04F04D07B681B68794A93427F
:1029700015D17B681B6C23F480127B681A647B681A
:102980001B68DB6803F00073002B36D07B681B6C80
:1029900023F4405343F480527B681A642DE07B6833
:1029A0001B6C43F480127B681A647B681B68B3F16C
:1029B000A04F04D07B681B68634A93420AD14FF052
:1029C000A043DB6803F00073002B14BF0123002336
:1029D000DBB208E05F4BDB6803F00073002B14BF31
:1029E00001230023DBB2002B07D07B681B6C23F490
:1029F000405343F480527B681A647B681B6C03F479
:102A00008053B3F5805F06D17B685B6C23F00602D0
:102A10007B685A6402E07B6800225A647B6800226B
:102A200083F83C207B681B681C221A607B685B690A
:102A3000082B10D17B681B685A687B681B6822F0E2
:102A400004025A607B681B685A687B681B6842F006
:102A500008025A6008E07B681B685A687B681B683C
:102A600042F00C025A6000BF7B685B6B012B07D100
:102A70007B681B685A687B681B6822F010025A60EA
:102A80007B681B68B3F1A04F04D07B681B682E4A9B
:102A9000934206D12D4B9B6803F01F03002B3ED0C1
:102AA00005E02B4B9B6803F01F03002B37D07B689E
:102AB0001B68B3F1A04F04D07B681B68224A934285
:102AC00006D1224B9B6803F01F03052B27D005E09E
:102AD0001F4B9B6803F01F03052B20D07B681B68EE
:102AE000B3F1A04F04D07B681B68174A934206D10C
:102AF000164B9B6803F01F03092B10D005E0144B05
:102B00009B6803F01F03092B09D07B681B68B3F196
:102B1000A04F04D07B681B680E4A93420FD17B689C
:102B20001B689A687B681B6842F004029A6006E0A2
:102B30007B68002283F83C2001E00223FB73FB7BCF
:102B400018461037BD4680BD0001005000030050FC
:102B5000000700500004005080B483B000AF7860DC
:102B60007B681B681B6C18460C37BD465DF8047B00
:102B70007047000080B49BB000AF786039600023DC
:102B800087F867300023BB607B6893F83C30012BEB
:102B900001D10223C8E27B68012283F83C207B68D4
:102BA0001B689B6803F00403002B40F0AC823B6879
:102BB0005B68042B1CD87B681B68196B3B685A68E0
:102BC00013465B0013445B001A461F239340DB430C
:102BD00019403B6818683B685A6813465B00134409
:102BE0005B0000FA03F27B681B680A431A6363E028
:102BF0003B685B68092B1ED87B681B68596B3B6878
:102C00005A6813465B0013445B001E3B1F2202FA06
:102C100003F3DB4319403B6818683B685A68134666
:102C20005B0013445B001E3B00FA03F27B681B68E9
:102C30000A435A6340E03B685B680E2B1ED87B68F2
:102C40001B68996B3B685A6813465B0013445B0032
:102C50003C3B1F2202FA03F3DB4319403B68186830
:102C60003B685A6813465B0013445B003C3B00FA28
:102C700003F27B681B680A439A631DE07B681B684C
:102C8000D96B3B685A6813465B0013445B005A3BA0
:102C90001F2202FA03F3DB4319403B6818683B68C4
:102CA0005A6813465B0013445B005A3B00FA03F278
:102CB0007B681B680A43DA637B681B689B6803F0C8
:102CC0000C03002B40F0E5803B681B68092B1CD9E6
:102CD0007B681B6899693B681A6813465B0013445C
:102CE0001E3B072202FA03F3DB4319403B68986856
:102CF0003B681A6813465B0013441E3B00FA03F25C
:102D00007B681B680A439A6119E07B681B685969F4
:102D10003B681A6813465B001344072202FA03F368
:102D2000DB4319403B6898683B681A6813465B00B0
:102D3000134400FA03F27B681B680A435A613B683C
:102D40005A697B681B68DB68DB0803F003035B00E0
:102D500002FA03F33B663B681B69013B032B4FD828
:102D600001A252F823F000BF792D00089B2D000826
:102D7000BD2D0008DF2D00087B681B681A6E994B7B
:102D800013403A68126891063A6E0A431A437B6808
:102D90001B6842F000421A667BE07B681B685A6E33
:102DA000904B13403A68126891063A6E0A431A43F0
:102DB0007B681B6842F000425A666AE07B681B68C9
:102DC0009A6E884B13403A68126891063A6E0A432D
:102DD0001A437B681B6842F000429A6659E07B68A0
:102DE0001B68DA6E7F4B13403A68126891063A6EA0
:102DF0000A431A437B681B6842F00042DA6648E0E7
:102E00007B681B681B6E03F0F8423B681B689B06DF
:102E10009A4207D17B681B681A6E7B681B6822F098
:102E200000421A667B681B685B6E03F0F8423B68E1
:102E30001B689B069A4207D17B681B685A6E7B68A9
:102E40001B6822F000425A667B681B689B6E03F089
:102E5000F8423B681B689B069A4207D17B681B6857
:102E60009A6E7B681B6822F000429A667B681B683A
:102E7000DB6E03F0F8423B681B689B069A4207D161
:102E80007B681B68DA6E7B681B6822F00042DA669A
:102E900000BF7B681B689B6803F00303012B08D10C
:102EA0007B681B681B6803F00103012B01D1012320
:102EB00000E00023002B40F031813B68DB68012BF0
:102EC0000FD07B681B68D3F8B0103B681B680122E9
:102ED00002FA03F3DA437B681B680A40C3F8B020A8
:102EE00049E07B681B68D3F8B0103B681B6801227F
:102EF0009A407B681B680A43C3F8B0203B681B6894
:102F0000092B1CD97B681B6899693B681A681346B2
:102F10005B0013441B3B072202FA03F3DB43194017
:102F20003B6898683B681A6813465B0013441B3B78
:102F300000FA03F27B681B680A439A611BE07B6816
:102F40001B6859693B681B685A1C13465B00134495
:102F5000072202FA03F3DB4319403B6898683B6899
:102F60001B685A1C13465B00134400FA03F27B688B
:102F70001B680A435A617B681B68B3F1A04F04D0F9
:102F80007B681B68184A934201D1184B00E0184B2C
:102F9000FB653B681B68102B05D1FB6D9B6803F438
:102FA0000003002B15D03B681B68112B05D1FB6D6E
:102FB0009B6803F08073002B0BD03B681B68122BBF
:102FC00040F0AC80FB6D9B6803F48003002B40F065
:102FD000A5807B681B68B3F1A04F0BD1024BFB604F
:102FE00023E000BF00F0FF83000100500003005009
:102FF000000700507B681B684E4A934203D14FF094
:10300000A043FB6011E07B681B684B4A934202D1EE
:103010004A4BFB6009E07B681B68484A934202D137
:10302000454BFB6001E00023FB607B681B689B68ED
:1030300003F00303012B08D17B681B681B6803F0B6
:103040000103012B01D1012300E00023002B50D10B
:10305000FB68002B10D0FB689B6803F00303012B77
:1030600007D1FB681B6803F00103012B01D1012389
:1030700000E00023002B3CD13B681B68102B1DD1C6
:103080007B681B68B3F1A04F18D1FB6D9B6843F4BC
:103090000002FB6D9A602A4B1B682A4AA2FB03239D
:1030A0009A0C13469B0013445B00BB6002E0BB68B4
:1030B000013BBB60BB68002BF9D12EE03B681B686D
:1030C000112B0BD17B681B68B3F1A04F06D1FB6DB0
:1030D0009B6843F08072FB6D9A601EE03B681B6842
:1030E000122B1AD1FB6D9B6843F48002FB6D9A6032
:1030F00013E07B681B6C43F020027B681A64012399
:1031000087F867300AE07B681B6C43F020027B681D
:103110001A64012387F8673000E000BF7B68002253
:1031200083F83C2097F8673018466C37BD465DF849
:10313000047B70470001005000040050000500505F
:103140000000002083DE1B4380B499B000AF78609C
:103150003960002387F85F307B681B68B3F1A04FAC
:1031600002D16D4BBB601AE07B681B686A4A9342D0
:1031700003D14FF0A043BB6011E07B681B68674A36
:10318000934202D1664BBB6009E07B681B68644ACE
:10319000934202D1614BBB6001E00023BB60BB687E
:1031A000002B01D10123B0E07B6893F83C30012B68
:1031B00001D10223A9E07B68012283F83C207B68CF
:1031C0001B689B6803F00403002B40F08D80BB68F4
:1031D0009B6803F00403002B40F086807B681B682B
:1031E000B3F1A04F04D07B681B684B4A934201D1D6
:1031F0004C4B00E04C4BBB653B681B68002B40D040
:10320000BB6D9B6823F460423B6859687B6893F808
:1032100030305B030B431A43BB6D9A607B681B68BD
:103220009B6803F00303012B08D17B681B681B68B4
:1032300003F00103012B01D1012300E00023002B47
:103240005CD1BB689B6803F00303012B07D1BB680B
:103250001B6803F00103012B01D1012300E00023CF
:10326000002B4BD1BB6D9B6823F4716323F00F03DC
:103270003A6811683A6892680A431A43BB6D9A60CB
:103280003CE0BB6D9B6823F46042BB6D9A607B6839
:103290001B689B6803F00303012B08D17B681B6844
:1032A0001B6803F00103012B01D1012300E000237F
:1032B000002B23D1BB689B6803F00303012B07D1CC
:1032C000BB681B6803F00103012B01D1012300E05F
:1032D0000023002B12D1BB6D9B6823F4716323F094
:1032E0000F03BA6D936009E07B681B6C43F020020A
:1032F0007B681A64012387F85F3000E000BF7B68B9
:10330000002283F83C2097F85F3018466437BD46AA
:103310005DF8047B704700BF0001005000040050BE
:1033200000050050000300500007005080B584B035
:1033300000AF78600023FB607B681B689B6803F02C
:103340000303012B08D17B681B681B6803F0010392
:10335000012B01D1012300E00023002B43D17B6826
:103360001B689A68224B1340002B0DD07B681B6CA6
:1033700043F010027B681A647B685B6C43F00102C7
:103380007B685A6401232FE07B681B689A687B681E
:103390001B6842F001029A60FEF772FFF8601BE0C2
:1033A000FEF76EFF0246FB68D31A022B14D97B6826
:1033B0001B681B6803F00103012B0DD07B681B6C9D
:1033C00043F010027B681A647B685B6C43F0010277
:1033D0007B685A64012307E07B681B681B6803F065
:1033E0000103012BDCD1002318461037BD4680BDF8
:1033F0003F00008080B584B000AF78600023FB60A0
:103400007B681B689B6803F00303012B08D17B6872
:103410001B681B6803F00103012B01D1012300E0AD
:103420000023002B47D07B681B689B6803F00D03CB
:10343000012B0FD17B681B689A687B681B6842F080
:1034400002029A607B681B6803221A60FEF718FF6D
:10345000F86029E07B681B6C43F010027B681A64FB
:103460007B685B6C43F001027B685A64012323E0B4
:10347000FEF706FF0246FB68D31A022B14D97B68BD
:103480001B689B6803F00103012B0DD17B681B6C4B
:1034900043F010027B681A647B685B6C43F00102A6
:1034A0007B685A64012307E07B681B689B6803F014
:1034B0000103012BDCD0002318461037BD4680BD28
:1034C00080B485B000AF78607B6803F00703FB60D1
:1034D0000C4BDB68BB60BA684FF6FF031340BB6060
:1034E000FB681A02BB68134343F0BF6343F4003325
:1034F000BB60044ABB68D36000BF1437BD465DF8AB
:10350000047B704700ED00E080B400AF044BDB6843
:103510001B0A03F007031846BD465DF8047B70479D
:1035200000ED00E080B483B000AF03463960FB716A
:1035300097F90730002B0ADB3B68DAB20C4997F9A0
:1035400007301201D2B20B4483F800230AE03B6833
:10355000DAB20849FB7903F00F03043B1201D2B23F
:103560000B441A7600BF0C37BD465DF8047B7047EC
:1035700000E100E000ED00E080B489B000AFF86049
:10358000B9607A60FB6803F00703FB61FB69C3F174
:103590000703042B28BF0423BB61FB690433062BFC
:1035A00002D9FB69033B00E000237B614FF0FF324F
:1035B000BB6902FA03F3DA43BB681A407B699A409D
:1035C0004FF0FF317B6901FA03F3D9437B680B406D
:1035D000134318462437BD465DF8047B704700004E
:1035E00080B582B000AF78607B68013BB3F1807F2B
:1035F00001D301230FE00A4A7B68013B53600F218E
:103600004FF0FF30FFF78EFF054B00229A60044B0E
:1036100007221A60002318460837BD4680BD00BF48
:1036200010E000E080B582B000AF78607868FFF706
:1036300047FF00BF0837BD4680BD80B586B000AFEC
:103640000346B9607A60FB7300237B61FFF75CFF80
:1036500078617A68B9687869FFF78EFF024697F952
:103660000F3011461846FFF75DFF00BF1837BD4603
:1036700080BD80B582B000AF78607868FFF7B0FF9A
:10368000034618460837BD4680BD000080B487B0A9
:1036900000AF7860396000237B6160E13B681A68A5
:1036A00001217B6901FA03F31340FB60FB68002BE7
:1036B00000F052813B685B6803F00303012B05D0E7
:1036C0003B685B6803F00303022B30D17B689B6887
:1036D0003B617B695B00032202FA03F3DB433A6937
:1036E00013403B613B68DA687B695B0002FA03F3D5
:1036F0003A6913433B617B683A699A607B685B680F
:103700003B6101227B6902FA03F3DB433A69134010
:103710003B613B685B681B0903F001027B6902FAAD
:1037200003F33A6913433B617B683A695A603B682B
:103730005B6803F00303032B17D07B68DB683B61F6
:103740007B695B00032202FA03F3DB433A6913400F
:103750003B613B689A687B695B0002FA03F33A6954
:1037600013433B617B683A69DA603B685B6803F04E
:103770000303022B23D17B69DA087B68083253F8F4
:1037800022303B617B6903F007039B000F2202FAA2
:1037900003F3DB433A6913403B613B681A697B6979
:1037A00003F007039B0002FA03F33A6913433B61FA
:1037B0007B69DA087B680832396943F822107B6834
:1037C0001B683B617B695B00032202FA03F3DB4366
:1037D0003A6913403B613B685B6803F003027B6915
:1037E0005B0002FA03F33A6913433B617B683A6971
:1037F0001A603B685B6803F44033002B00F0AC8038
:103800005E4B9B695D4A43F0010393615B4B9B698F
:1038100003F00103BB60BB68594A7B699B08023314
:1038200052F823303B617B6903F003039B000F22B6
:1038300002FA03F3DB433A6913403B617B68B3F15F
:10384000904F25D07B684F4A93421FD07B684E4AE9
:10385000934219D07B684D4A934213D07B684C4AFF
:1038600093420DD07B684B4A934207D07B684A4A0B
:10387000934201D106230CE007230AE0052308E068
:10388000042306E0032304E0022302E0012300E016
:1038900000237A6902F00302920093403A691343CD
:1038A0003B6137497B699B0802333A6941F8232021
:1038B0003A4B9B683B61FB68DB433A6913403B61D1
:1038C0003B685B6803F48013002B03D03A69FB6804
:1038D00013433B61314A3B699360304BDB683B618A
:1038E000FB68DB433A6913403B613B685B6803F468
:1038F0000013002B03D03A69FB6813433B61274A4E
:103900003B69D360254B5B683B61FB68DB433A69ED
:1039100013403B613B685B6803F40033002B03D02A
:103920003A69FB6813433B611C4A3B6953601B4B7C
:103930001B683B61FB68DB433A6913403B613B68B2
:103940005B6803F48033002B03D03A69FB681343B0
:103950003B61124A3B6913607B6901337B613B68C1
:103960001A687B6922FA03F3002B7FF497AE00BF3D
:1039700000BF1C37BD465DF8047B70470010024055
:10398000000001400004004800080048000C004806
:1039900000100048001400480018004800040140CE
:1039A00080B483B000AF78600B467B8013467B7099
:1039B0007B78002B03D07A887B689A6102E07A8852
:1039C0007B689A6200BF0C37BD465DF8047B704788
:1039D00080B5ADF5027D00AF07F50273A3F5017365
:1039E000186007F50273A3F501731B68002B02D161
:1039F000012301F03AB807F50273A3F501731B68C0
:103A00001B6803F00103002B00F06F81B54B5B686E
:103A100003F00C03042B0CD0B24B5B6803F00C03D7
:103A2000082B5CD1AF4B5B6803F4C033B3F5803F28
:103A300055D14FF40033C7F8F431D7F8F43193FA85
:103A4000A3F3C7F8F031D7F8F031B3FA83F3DBB260
:103A50005B09DBB243F00103DBB2012B02D1A14BC6
:103A60001B6815E04FF40033C7F8EC31D7F8EC31A0
:103A700093FAA3F3C7F8E8314FF40033C7F8E43101
:103A8000D7F8E43193FAA3F3C7F8E031954B5B6ABA
:103A90004FF40032C7F8DC21D7F8DC2192FAA2F209
:103AA000C7F8D821D7F8D821B2FA82F2D2B242F0C0
:103AB0002002D2B202F01F02012101FA02F21340E9
:103AC000002B00F0118107F50273A3F501731B6849
:103AD0005B68002B40F00881012300F0C6BF07F5AA
:103AE0000273A3F501731B685B68B3F5803F06D1D1
:103AF0007C4B1B687B4A43F48033136036E007F548
:103B00000273A3F501731B685B68002B0CD1754B26
:103B10001B68744A23F480331360724B1B68714A2C
:103B200023F48023136021E007F50273A3F50173EA
:103B30001B685B68B3F5A02F0CD16A4B1B68694A00
:103B400043F480231360674B1B68664A43F4803359
:103B500013600BE0634B1B68624A23F480331360ED
:103B6000604B1B685F4A23F48023136007F50273E0
:103B7000A3F501731B685B68002B59D0FEF780FB2F
:103B8000C7F800020AE0FEF77BFB0246D7F80032D6
:103B9000D31A642B02D9032300F067BF4FF400331C
:103BA000C7F8D431D7F8D43193FAA3F3C7F8D0319A
:103BB000D7F8D031B3FA83F3DBB25B09DBB243F061
:103BC0000103DBB2012B02D1464B1B6815E04FF419
:103BD0000033C7F8CC31D7F8CC3193FAA3F3C7F848
:103BE000C8314FF40033C7F8C431D7F8C43193FA61
:103BF000A3F3C7F8C0313B4B5B6A4FF40032C7F800
:103C0000BC21D7F8BC2192FAA2F2C7F8B821D7F8A4
:103C1000B821B2FA82F2D2B242F02002D2B202F05D
:103C20001F02012101FA02F21340002BABD05CE02D
:103C3000FEF726FBC7F800020AE0FEF721FB02466A
:103C4000D7F80032D31A642B02D9032300F00DBF3A
:103C50004FF40033C7F8B431D7F8B43193FAA3F373
:103C6000C7F8B031D7F8B031B3FA83F3DBB25B09F0
:103C7000DBB243F00103DBB2012B02D1194B1B680D
:103C800015E04FF40033C7F8AC31D7F8AC3193FAF4
:103C9000A3F3C7F8A8314FF40033C7F8A431D7F81D
:103CA000A43193FAA3F3C7F8A0310E4B5B6A4FF42B
:103CB0000032C7F89C21D7F89C2192FAA2F2C7F8EB
:103CC0009821D7F89821B2FA82F2D2B242F02002BB
:103CD000D2B202F01F02012101FA02F21340002BBE
:103CE000ABD102E00010024000BF07F50273A3F55C
:103CF00001731B681B6803F00203002B00F07F8137
:103D0000A74B5B6803F00C03002B0CD0A44B5B6843
:103D100003F00C03082B73D1A14B5B6803F4C03391
:103D2000B3F5004F6CD10223C7F89431D7F8943122
:103D300093FAA3F3C7F89031D7F89031B3FA83F32D
:103D4000DBB25B09DBB243F00103DBB2012B02D132
:103D5000934B1B6813E00223C7F88C31D7F88C31E2
:103D600093FAA3F3C7F888310223C7F88431D7F850
:103D7000843193FAA3F3C7F88031894B5B6A02223E
:103D8000C7F87C21D7F87C2192FAA2F2C7F87821F3
:103D9000D7F87821B2FA82F2D2B242F02002D2B23F
:103DA00002F01F02012101FA02F21340002B0AD097
:103DB00007F50273A3F501731B68DB68012B02D0C2
:103DC000012300F052BE764B1B6823F0F80207F582
:103DD0000273A3F501731B681B69F821C7F87411FE
:103DE000D7F8741191FAA1F1C7F87011D7F87011D2
:103DF000B1FA81F1C9B28B40694913430B60FEE00F
:103E000007F50273A3F501731B68DB68002B00F054
:103E100088800123C7F86C31D7F86C3193FAA3F38B
:103E2000C7F86831D7F86831B3FA83F3DBB203F12E
:103E3000845303F584139B001A4601231360FEF795
:103E40001FFAC7F800020AE0FEF71AFA0246D7F88E
:103E50000032D31A022B02D9032300F006BE02233C
:103E6000C7F86431D7F8643193FAA3F3C7F8603127
:103E7000D7F86031B3FA83F3DBB25B09DBB243F00E
:103E80000103DBB2012B02D1454B1B6813E0022377
:103E9000C7F85C31D7F85C3193FAA3F3C7F858310F
:103EA0000223C7F85431D7F8543193FAA3F3C7F873
:103EB00050313B4B5B6A0222C7F84C21D7F84C21AA
:103EC00092FAA2F2C7F84821D7F84821B2FA82F252
:103ED000D2B242F02002D2B202F01F02012101FA56
:103EE00002F21340002BAFD02D4B1B6823F0F802D9
:103EF00007F50273A3F501731B681B69F821C7F866
:103F00004411D7F8441191FAA1F1C7F84011D7F83C
:103F10004011B1FA81F1C9B28B40214913430B60C2
:103F20006DE00123C7F83C31D7F83C3193FAA3F395
:103F3000C7F83831D7F83831B3FA83F3DBB203F17D
:103F4000845303F584139B001A4600231360FEF785
:103F500097F9C7F800020AE0FEF792F90246D7F88F
:103F60000032D31A022B02D9032300F07EBD0223B4
:103F7000C7F83431D7F8343193FAA3F3C7F83031A6
:103F8000D7F83031B3FA83F3DBB25B09DBB243F02D
:103F90000103DBB2012B05D1014B1B6816E000BF0A
:103FA000001002400223C7F82C31D7F82C3193FAC5
:103FB000A3F3C7F828310223C7F82431D7F82431F6
:103FC00093FAA3F3C7F82031BF4B5B6A0222C7F80C
:103FD0001C21D7F81C2192FAA2F2C7F81821D7F8B1
:103FE0001821B2FA82F2D2B242F02002D2B202F02A
:103FF0001F02012101FA02F21340002BACD107F598
:104000000273A3F501731B681B6803F00803002B00
:1040100000F0138107F50273A3F501731B685B6958
:10402000002B7CD00123C7F81431D7F8143193FA50
:10403000A3F3C7F81031D7F81031B3FA83F3DBB22A
:104040001A46A24B13449B001A4601231360FEF745
:1040500017F9C7F800020AE0FEF712F90246D7F88E
:104060000032D31A022B02D9032300F0FEBC022334
:10407000C7F80C31D7F80C3193FAA3F207F50273A5
:10408000A3F580731A6007F50273A3F58273022209
:104090001A6007F50273A3F582731B6893FAA3F203
:1040A00007F50273A3F584731A6007F50273A3F58D
:1040B000867302221A6007F50273A3F586731B68E4
:1040C00093FAA3F207F50273A3F588731A607E4B87
:1040D0005A6A07F50273A3F58A730221196007F57E
:1040E0000273A3F58A731B6893FAA3F107F50273B1
:1040F000A3F58C73196007F50273A3F58C731B6825
:10410000B3FA83F3DBB243F06003DBB203F01F03C7
:10411000012101FA03F31340002B9DD08DE007F538
:104120000273A3F58E7301221A6007F50273A3F5DB
:104130008E731B6893FAA3F207F50273A3F59073CD
:104140001A6007F50273A3F590731B68B3FA83F343
:10415000DBB21A465D4B13449B001A4600231360E2
:10416000FEF78EF8C7F800020AE0FEF789F802466B
:10417000D7F80032D31A022B02D9032300F075BC02
:1041800007F50273A3F5927302221A6007F5027312
:10419000A3F592731B6893FAA3F207F50273A3F5D4
:1041A00094731A6007F50273A3F5967302221A60DE
:1041B00007F50273A3F596731B6893FAA3F207F54C
:1041C0000273A3F598731A6007F50273A3F59A7347
:1041D00002221A6007F50273A3F59A731B6893FA1B
:1041E000A3F207F50273A3F59C731A60364B5A6A63
:1041F00007F50273A3F59E730221196007F5027398
:10420000A3F59E731B6893FAA3F107F50273A3F558
:10421000A073196007F50273A3F5A0731B68B3FAC6
:1042200083F3DBB243F06003DBB203F01F03012131
:1042300001FA03F31340002B97D107F50273A3F59E
:1042400001731B681B6803F00403002B00F0A581B9
:10425000002387F807321C4BDB6903F08053002BE7
:1042600016D1194BDB69184A43F08053D361164BC2
:10427000DB6903F0805207F50273A3F5FE731A6041
:1042800007F50273A3F5FE731B68012387F8073255
:104290000F4B1B6803F48073002B21D10C4B1B6860
:1042A0000B4A43F480731360FDF7EAFFC7F800027E
:1042B00010E0FDF7E5FF0246D7F80032D31A642B71
:1042C00008D90323D1E300BF0010024020819010E1
:1042D000007000408D4B1B6803F48073002BE8D006
:1042E00007F50273A3F501731B689B68012B06D1C8
:1042F000874B1B6A864A43F00103136235E007F5DA
:104300000273A3F501731B689B68002B0CD1804BD3
:104310001B6A7F4A23F0010313627D4B1B6A7C4AB0
:1043200023F00403136220E007F50273A3F5017381
:104330001B689B68052B0CD1754B1B6A744A43F0B4
:1043400004031362724B1B6A714A43F00103136248
:104350000BE06F4B1B6A6E4A23F0010313626C4B38
:104360001B6A6B4A23F00403136207F50273A3F57B
:1043700001731B689B68002B00F08180FDF780FFB4
:10438000C7F800020BE0FDF77BFF0246D7F80032CA
:10439000D31A41F28832934201D9032365E307F52A
:1043A0000273A3F5A27302221A6007F50273A3F544
:1043B000A2731B6893FAA3F207F50273A3F5A47323
:1043C0001A6007F50273A3F5A67302221A6007F5B7
:1043D0000273A3F5A6731B6893FAA3F207F50273A1
:1043E000A3F5A8731A6007F50273A3F5A8731B68F9
:1043F000B3FA83F3DBB25B09DBB243F00203DBB257
:10440000022B02D1424B1B6A13E007F50273A3F59E
:10441000AA7302221A6007F50273A3F5AA731B6838
:1044200093FAA3F207F50273A3F5AC731A60384B45
:104430005B6A07F50272A2F5AE720221116007F500
:104440000272A2F5AE72126892FAA2F107F5027238
:10445000A2F5B072116007F50272A2F5B07212688F
:10446000B2FA82F2D2B242F04002D2B202F01F029D
:10447000012101FA02F21340002B84D083E0FDF702
:10448000FFFEC7F800020BE0FDF7FAFE0246D7F880
:104490000032D31A41F28832934201D90323E4E275
:1044A00007F50273A3F5B27302221A6007F50273CF
:1044B000A3F5B2731B6893FAA3F207F50273A3F591
:1044C000B4731A6007F50273A3F5B67302221A607B
:1044D00007F50273A3F5B6731B6893FAA3F207F509
:1044E0000273A3F5B8731A6007F50273A3F5B873E6
:1044F0001B68B3FA83F3DBB25B09DBB243F0020360
:10450000DBB2022B06D1024B1B6A17E000700040A1
:104510000010024007F50273A3F5BA7302221A6075
:1045200007F50273A3F5BA731B6893FAA3F207F5B4
:104530000273A3F5BC731A60B34B5B6A07F5027292
:10454000A2F5BE720221116007F50272A2F5BE72D9
:10455000126892FAA2F107F50272A2F5C072116018
:1045600007F50272A2F5C0721268B2FA82F2D2B2F4
:1045700042F04002D2B202F01F02012101FA02F21F
:104580001340002B80D197F80732012B05D19E4BA9
:10459000DB699D4A23F08053D36107F50273A3F5CD
:1045A00001731B689B69002B00F05E82964B5B6871
:1045B00003F00C03082B00F01F8207F50273A3F52C
:1045C00001731B689B69022B40F0708107F5027331
:1045D000A3F5C2734FF080721A6007F50273A3F55A
:1045E000C2731B6893FAA3F207F50273A3F5C473B1
:1045F0001A6007F50273A3F5C4731B68B3FA83F35B
:10460000DBB203F1845303F584139B001A460023A5
:104610001360FDF735FEC7F8000209E0FDF730FE34
:104620000246D7F80032D31A022B01D903231CE229
:1046300007F50273A3F5C6734FF000721A6007F511
:104640000273A3F5C6731B6893FAA3F207F502730E
:10465000A3F5C8731A6007F50273A3F5C8731B6846
:10466000B3FA83F3DBB25B09DBB243F00103DBB2E5
:10467000012B02D1644B1B6827E007F50273A3F5F9
:10468000CA734FF000721A6007F50273A3F5CA737C
:104690001B6893FAA3F207F50273A3F5CC731A60B3
:1046A00007F50273A3F5CE734FF000721A6007F599
:1046B0000273A3F5CE731B6893FAA3F207F5027396
:1046C000A3F5D0731A60504B5B6A07F50272A2F52E
:1046D000D2724FF00071116007F50272A2F5D2722A
:1046E000126892FAA2F107F50272A2F5D472116073
:1046F00007F50272A2F5D4721268B2FA82F2D2B24F
:1047000042F02002D2B202F01F02012101FA02F2AD
:104710001340002B82D13C4BDB6A23F00F0207F5DC
:104720000273A3F501731B685B6A37491343CB62BD
:10473000354B5B6823F4761207F50273A3F501731A
:104740001B68196A07F50273A3F501731B68DB691F
:104750000B432D4913434B6007F50273A3F5D67342
:104760004FF080721A6007F50273A3F5D6731B68C9
:1047700093FAA3F207F50273A3F5D8731A6007F54D
:104780000273A3F5D8731B68B3FA83F3DBB203F1AA
:10479000845303F584139B001A4601231360FDF72D
:1047A0006FFDC7F8000209E0FDF76AFD0246D7F881
:1047B0000032D31A022B01D9032356E107F5027305
:1047C000A3F5DA734FF000721A6007F50273A3F5D0
:1047D000DA731B6893FAA3F207F50273A3F5DC738F
:1047E0001A6007F50273A3F5DC731B68B3FA83F351
:1047F000DBB25B09DBB243F00103DBB2012B05D175
:10480000014B1B682AE000BF0010024007F502734D
:10481000A3F5DE734FF000721A6007F50273A3F57B
:10482000DE731B6893FAA3F207F50273A3F5E07336
:104830001A6007F50273A3F5E2734FF000721A6075
:1048400007F50273A3F5E2731B6893FAA3F207F569
:104850000273A3F5E4731A60864B5B6A07F5027274
:10486000A2F5E6724FF00071116007F50272A2F531
:10487000E672126892FAA2F107F50272A2F5E872E6
:10488000116007F50272A2F5E8721268B2FA82F2BC
:10489000D2B242F02002D2B202F01F02012101FA8C
:1048A00002F21340002B3FF47FAFDDE007F5027307
:1048B000A3F5EA734FF080721A6007F50273A3F54F
:1048C000EA731B6893FAA3F207F50273A3F5EC737E
:1048D0001A6007F50273A3F5EC731B68B3FA83F350
:1048E000DBB203F1845303F584139B001A460023C3
:1048F0001360FDF7C5FCC7F8000209E0FDF7C0FC36
:104900000246D7F80032D31A022B01D90323ACE0B8
:1049100007F50273A3F5EE734FF000721A6007F506
:104920000273A3F5EE731B6893FAA3F207F5027303
:10493000A3F5F0731A6007F50273A3F5F0731B6813
:10494000B3FA83F3DBB25B09DBB243F00103DBB202
:10495000012B02D1474B1B6827E007F50273A3F533
:10496000F2734FF000721A6007F50273A3F5F27349
:104970001B6893FAA3F207F50273A3F5F4731A60A8
:1049800007F50273A3F5F6734FF000721A6007F58E
:104990000273A3F5F6731B6893FAA3F207F502738B
:1049A000A3F5F8731A60334B5B6A07F50272A2F540
:1049B000FA724FF00071116007F50272A2F5FA72F7
:1049C000126892FAA2F107F50272A2F5FC72116068
:1049D00007F50272A2F5FC721268B2FA82F2D2B244
:1049E00042F02002D2B202F01F02012101FA02F2CB
:1049F0001340002B82D137E007F50273A3F5017352
:104A00001B689B69012B01D101232EE0194B5B68C8
:104A1000C7F8FC31174BDB6AC7F8F831D7F8FC311F
:104A200003F4C03207F50273A3F501731B68DB6959
:104A30009A4217D1D7F8FC3103F4701207F50273CC
:104A4000A3F501731B681B6A9A420BD1D7F8F831A2
:104A500003F00F0207F50273A3F501731B685B6A8D
:104A60009A4201D0012300E00023184607F502779F
:104A7000BD4680BD0010024080B59EB000AF78609A
:104A8000396000237B677B68002B01D1012362E141
:104A9000904B1B6803F007033A689A4210D98D4B7C
:104AA0001B6823F007028B493B6813430B60894B5B
:104AB0001B6803F007033A689A4201D001234AE1D8
:104AC0007B681B6803F00203002B08D0824B5B68F5
:104AD00023F0F0027B689B687F4913434B607B683F
:104AE0001B6803F00103002B00F0DC807B685B682F
:104AF000012B3CD14FF400333B673B6F93FAA3F398
:104B0000FB66FB6EB3FA83F3DBB25B09DBB243F007
:104B10000103DBB2012B02D16F4B1B680FE04FF496
:104B20000033BB66BB6E93FAA3F37B664FF400338E
:104B30003B663B6E93FAA3F3FB65674B5B6A4FF4EE
:104B40000032BA65BA6D92FAA2F27A657A6DB2FA5B
:104B500082F2D2B242F02002D2B202F01F02012150
:104B600001FA02F21340002B7BD10123F3E07B68B2
:104B70005B68022B3CD14FF000733B653B6D93FAB1
:104B8000A3F3FB64FB6CB3FA83F3DBB25B09DBB228
:104B900043F00103DBB2012B02D14F4B1B680FE046
:104BA0004FF00073BB64BB6C93FAA3F37B644FF0CC
:104BB00000733B643B6C93FAA3F3FB63464B5B6A65
:104BC0004FF00072BA63BA6B92FAA2F27A637A6B10
:104BD000B2FA82F2D2B242F02002D2B202F01F0246
:104BE000012101FA02F21340002B3AD10123B2E075
:104BF00002233B633B6B93FAA3F3FB62FB6AB3FABA
:104C000083F3DBB25B09DBB243F00103DBB2012BC0
:104C100002D1314B1B680DE00223BB62BB6A93FAE1
:104C2000A3F37B6202233B623B6A93FAA3F3FB612B
:104C3000294B5B6A0222BA61BA6992FAA2F27A61DE
:104C40007A69B2FA82F2D2B242F02002D2B202F013
:104C50001F02012101FA02F21340002B01D10123AE
:104C600079E01D4B5B6823F003027B685B681A499F
:104C700013434B60FDF704FB78670AE0FDF700FB88
:104C800002467B6FD31A41F28832934201D9032343
:104C900061E0114B5B6803F00C027B685B689B0072
:104CA0009A42EBD10B4B1B6803F007033A689A4218
:104CB00014D2084B1B6823F0070206493B681343D4
:104CC0000B60044B1B6803F007033A689A4205D057
:104CD000012340E000200240001002407B681B6876
:104CE00003F00403002B08D01D4B5B6823F4E06243
:104CF0007B68DB681A4913434B607B681B6803F0D1
:104D00000803002B09D0164B5B6823F460527B68C4
:104D10001B69DB00124913434B6000F029F8014680
:104D20000F4B5B6803F0F003F0223A613A6992FAA4
:104D3000A2F2FA60FA68B2FA82F2D2B2D340094A19
:104D4000D35C21FA03F3084A1360084B1B6818462A
:104D5000FDF752FA002318467837BD4680BD00BFE4
:104D600000100240A8880008000000200400002075
:104D700080B487B000AF0023FB600023BB6000233A
:104D80007B6100237B6000233B611F4B5B68FB6002
:104D9000FB6803F00C03042B02D0082B03D029E09E
:104DA0001A4B3B6129E0FB689B0C03F00F03184A88
:104DB000D35C7B60144BDB6A03F00F03154AD35CB2
:104DC000BB60FB6803F48033002B08D00F4ABB683C
:104DD000B2FBF3F27B6802FB03F37B6107E00B4A53
:104DE000BB68B2FBF3F27B6802FB03F37B617B6978
:104DF0003B6102E0054B3B6100BF3B6918461C3735
:104E0000BD465DF8047B70470010024000127A0036
:104E1000C0880008D088000880B400AF034B1B682E
:104E20001846BD465DF8047B704700BF00000020B7
:104E300080B582B000AFFFF7EFFF01460B4B5B6818
:104E400003F4E0634FF4E0627A607A6892FAA2F2C7
:104E50003A603A68B2FA82F2D2B2D340044AD35CE2
:104E600021FA03F318460837BD4680BD0010024002
:104E7000B888000880B582B000AFFFF7CDFF0146CB
:104E80000B4B5B6803F460534FF460527A607A68AE
:104E900092FAA2F23A603A68B2FA82F2D2B2D340FF
:104EA000044AD35C21FA03F318460837BD4680BD97
:104EB00000100240B888000880B592B000AF78605A
:104EC00000233B640023FB63002387F847307B68A3
:104ED0001B6803F48033002B00F0D4804E4BDB6959
:104EE00003F08053002B0ED14B4BDB694A4A43F051
:104EF0008053D361484BDB6903F08053BB60BB68D0
:104F0000012387F84730454B1B6803F48073002B5F
:104F100018D1424B1B68414A43F480731360FDF77C
:104F2000AFF9386408E0FDF7ABF902463B6CD31AE1
:104F3000642B01D90323D6E1384B1B6803F480733B
:104F4000002BF0D0344B1B6A03F44073FB63FB6B04
:104F5000002B00F084807B685B6803F44073FA6B7D
:104F60009A427CD02C4B1B6A23F44073FB634FF4B2
:104F700080333B633B6B93FAA3F3FB62FB6AB3FAA8
:104F800083F3DBB21A46264B13449B001A460123D7
:104F900013604FF48033BB63BB6B93FAA3F37B6363
:104FA0007B6BB3FA83F3DBB21A461D4B13449B00B1
:104FB0001A4600231360184AFB6B1362FB6B03F065
:104FC0000103002B4BD0FDF75BF938640AE0FDF7D5
:104FD00057F902463B6CD31A41F28832934201D909
:104FE000032380E10223BB62BB6A93FAA3F37B62D3
:104FF00002233B623B6A93FAA3F3FB61FB69B3FABA
:1050000083F3DBB25B09DBB243F00203DBB2022BBA
:1050100008D1014B1B6A0DE00010024000700040F7
:10502000008190100223BB61BB6993FAA3F37B61FB
:105030009A4B5B6A02223A613A6992FAA2F2FA60EA
:10504000FA68B2FA82F2D2B242F04002D2B202F070
:105050001F02012101FA02F21340002BB7D08F4B3F
:105060001B6A23F440727B685B688C4913430B62B4
:1050700097F84730012B05D1884BDB69874A23F02D
:105080008053D3617B681B6803F00103002B08D0B9
:10509000824B1B6B23F003027B689B687F491343A1
:1050A0000B637B681B6803F00203002B08D07B4B6B
:1050B0001B6B23F440327B68DB68784913430B6336
:1050C0007B681B6803F00403002B08D0734B1B6B39
:1050D00023F440227B681B69704913430B637B6890
:1050E0001B6803F02003002B08D06C4B1B6B23F0D4
:1050F00010027B68DB69694913430B637B681B689B
:1051000003F40033002B08D0644B5B6823F4800267
:105110007B685B6D614913434B607B681B6803F0E0
:105120004003002B08D05D4B1B6B23F020027B68F3
:105130001B6A5A4913430B637B681B6803F4802383
:10514000002B08D0554B1B6B23F040027B685B6A39
:10515000524913430B637B681B6803F00803002B61
:1051600008D04E4B1B6B23F440127B685B694B49A4
:1051700013430B637B681B6803F01003002B08D0FC
:10518000464B1B6B23F440027B689B6943491343E6
:105190000B637B681B6803F40073002B08D03F4B44
:1051A0005B6823F400027B681B6B3C4913434B6034
:1051B0007B681B6803F08003002B08D0374BDB6A49
:1051C00023F4F8727B689B6A34491343CB627B6893
:1051D0001B6803F48073002B08D0304BDB6A23F488
:1051E00078527B68DB6A2D491343CB627B681B686E
:1051F00003F48053002B08D0284B1B6B23F48072E0
:105200007B685B6B254913430B637B681B6803F466
:105210000053002B08D0214B1B6B23F400727B68DA
:105220001B6C1E4913430B637B681B6803F48013DC
:10523000002B08D0194B1B6B23F080727B689B6B93
:10524000164913430B637B681B6803F40013002BA0
:1052500008D0124B1B6B23F000727B68DB6B0F498D
:1052600013430B637B681B6803F48003002B08D097
:105270000A4B1B6B23F480627B685B6C074913430A
:105280000B637B681B6803F40003002B0CD0034BFB
:105290001B6B23F400627B6802E000BF0010024039
:1052A0009B6C134913430B637B681B6803F080738B
:1052B000002B08D00E4B1B6B23F400527B68DB6C79
:1052C0000B4913430B637B681B6803F00073002BCF
:1052D00008D0074B1B6B23F400427B681B6D04490D
:1052E00013430B63002318464837BD4680BD00BFFB
:1052F0000010024080B582B000AF78607B68002B60
:1053000001D1012340E07B68DB6F002B06D17B6875
:10531000002283F878207868FCF7E2FD7B6824227D
:10532000DA677B681B681A687B681B6822F00102D9
:105330001A607B685B6A002B02D0786800F086FAFE
:10534000786800F0AFF80346012B01D101231BE080
:105350007B681B685A687B681B6822F490425A601D
:105360007B681B689A687B681B6822F02A029A6037
:105370007B681B681A687B681B6842F001021A6030
:10538000786800F005FB034618460837BD4680BD27
:1053900080B58AB002AFF860B9603B601346FB800D
:1053A000FB68DB6F202B77D1BB68002B02D0FB881A
:1053B000002B01D1012370E0FB680022C3F8842098
:1053C000FB682122DA67FCF75BFF7861FB68FA88EB
:1053D000A3F85020FB68FA88A3F85220FB689B686A
:1053E000B3F5805F08D1FB681B69002B04D1002353
:1053F000FB61BB68BB6103E0BB68FB610023BB6171
:105400002FE03B6800937B6900228021F86800F060
:1054100067FB0346002B04D0FB682022DA670323D6
:105420003BE0FB69002B0BD1BB691A88FB681B684A
:10543000C2F3080292B21A85BB690233BB6107E06E
:10544000FB691A78FB681B681A85FB690133FB61ED
:10545000FB68B3F852309BB2013B9AB2FB68A3F8E9
:105460005220FB68B3F852309BB2002BC9D13B6885
:1054700000937B6900224021F86800F031FB03466D
:10548000002B04D0FB682022DA67032305E0FB68C9
:105490002022DA67002300E0022318462037BD46A9
:1054A00080BD000080B588B000AF78600023BB7776
:1054B0007B689A687B681B691A437B685B691A433F
:1054C0007B68DB6913437B617B681B681A68924BBE
:1054D00013407A68126879690B4313607B681B6814
:1054E0005B6823F440517B68DA687B681B680A4379
:1054F0005A607B689B697B617B681B6A7A6913438E
:105500007B617B681B689B6823F430617B681B6848
:105510007A690A439A607B681B68804A934220D16B
:105520007F4B1B6B03F00303032B17D801A252F828
:1055300023F000BF45550008515500085755000895
:105540004B5500080123FB77B5E00223FB77B2E05F
:105550000423FB77AFE00823FB77ACE01023FB7755
:10556000A9E07B681B686F4A934224D16C4B1B6B8C
:1055700003F44033B3F5403F11D0B3F5403F17D8A3
:10558000B3F5003F11D0B3F5003F11D8002B03D085
:10559000B3F5803F06D00BE00023FB778BE00223BE
:1055A000FB7788E00423FB7785E00823FB7782E024
:1055B0001023FB777FE07B681B685B4A934224D112
:1055C000574B1B6B03F44023B3F5402F11D0B3F5B9
:1055D000402F17D8B3F5002F11D0B3F5002F11D8F5
:1055E000002B03D0B3F5802F06D00BE00023FB7710
:1055F00061E00223FB775EE00423FB775BE0082396
:10560000FB7758E01023FB7755E07B681B68474A1F
:10561000934224D1424B1B6B03F44013B3F5401F5C
:1056200011D0B3F5401F17D8B3F5001F11D0B3F553
:10563000001F11D8002B03D0B3F5801F06D00BE05C
:105640000023FB7737E00223FB7734E00423FB776A
:1056500031E00823FB772EE01023FB772BE07B68FB
:105660001B68334A934224D12D4B1B6B03F4400338
:10567000B3F5400F11D0B3F5400F17D8B3F5000FB5
:1056800011D0B3F5000F11D8002B03D0B3F5800F64
:1056900006D00BE00023FB770DE00223FB770AE046
:1056A0000423FB7707E00823FB7704E01023FB7754
:1056B00001E01023FB777B68DB69B3F5004F6BD10A
:1056C000FB7F082B38D801A252F823F0F1560008CE
:1056D000F956000801570008395700080757000815
:1056E0003957000839570008395700080F57000884
:1056F000FFF79EFBB86124E0FFF7BCFBB86120E038
:105700000C4BBB611DE0FFF733FBB86119E04FF4B0
:105710000043BB6115E000BFF369FFEF00380140B3
:10572000001002400044004000480040004C00408F
:105730000050004000127A000023BB610123BB77B8
:1057400000BFBB69002B73D0BB695A007B685B68E4
:105750005B081A447B685B68B2FBF3F33B613B690F
:105760000F2B16D93B69B3F5803F12D23B699BB230
:1057700023F00F03FB813B695B089BB203F0070337
:105780009AB2FB891343FB817B681B68FA89DA6054
:105790004EE00123BB774BE0FB7F082B27D801A20B
:1057A00052F823F0C9570008D1570008D95700080C
:1057B000EF570008DF570008EF570008EF570008C1
:1057C000EF570008E7570008FFF732FBB86113E016
:1057D000FFF750FBB8610FE01B4BBB610CE0FFF71C
:1057E000C7FAB86108E04FF40043BB6104E000234E
:1057F000BB610123BB7700BFBB69002B18D07B685E
:105800005B685A08BB691A447B685B68B2FBF3F3B8
:105810003B613B690F2B09D93B69B3F5803F05D24A
:105820003B699AB27B681B68DA6001E00123BB77B1
:105830007B6800229A667B680022DA66BB7F184686
:105840002037BD4680BD00BF00127A0080B483B00F
:1058500000AF78607B685B6A03F00803002B0AD016
:105860007B681B685B6823F400417B685A6B7B682C
:105870001B680A435A607B685B6A03F00103002BD4
:105880000AD07B681B685B6823F400317B689A6AE6
:105890007B681B680A435A607B685B6A03F00203FB
:1058A000002B0AD07B681B685B6823F480317B681F
:1058B000DA6A7B681B680A435A607B685B6A03F09C
:1058C0000403002B0AD07B681B685B6823F48021EB
:1058D0007B681A6B7B681B680A435A607B685B6A4B
:1058E00003F01003002B0AD07B681B689B6823F42D
:1058F00080517B689A6B7B681B680A439A607B685F
:105900005B6A03F02003002B0AD07B681B689B684E
:1059100023F400517B68DA6B7B681B680A439A604A
:105920007B685B6A03F04003002B1AD07B681B681E
:105930005B6823F480117B681A6C7B681B680A43E0
:105940005A607B681B6CB3F5801F0AD17B681B68AB
:105950005B6823F4C0017B685A6C7B681B680A4350
:105960005A607B685B6A03F08003002B0AD07B6877
:105970001B685B6823F400217B689A6C7B681B685A
:105980000A435A6000BF0C37BD465DF8047B704780
:1059900080B598B002AF78607B680022C3F884209D
:1059A000FCF76EFC78657B681B681B6803F00803D6
:1059B000082B2ED16FF07E4300937B6D00224FF4B5
:1059C0000011786800F08CF80346002B21D07B682A
:1059D0001B68BB63BB6B53E8003F7B637B6B23F0AF
:1059E00080033B657B681B681A463B6D7B643A64A9
:1059F000396C7A6C41E80023FB63FB6B002BE6D12A
:105A00007B682022DA677B68002283F878200323F2
:105A100062E07B681B681B6803F00403042B49D118
:105A20006FF07E4300937B6D00224FF48001786815
:105A300000F056F80346002B3CD07B681B687B6265
:105A40007B6A53E8003F3B623B6A23F49073FB643C
:105A50007B681B681A46FB6C3B63FA62F96A3A6B17
:105A600041E80023BB62BB6A002BE6D17B681B6860
:105A700008333B613B6953E8003FFB60FB6823F060
:105A80000103BB647B681B680833BA6CFA61BB61B5
:105A9000B969FA6941E800237B617B69002BE5D194
:105AA0007B682022C3F880207B68002283F878205E
:105AB000032311E07B682022DA677B682022C3F889
:105AC00080207B6800221A667B6800225A667B6809
:105AD000002283F87820002318465837BD4680BD41
